:100000000C94DA000C94DB070C94B4070C948D0765
:100010000C9466070C9402010C9402010C943F07A7
:100020000C9402010C94A30A0C9402080C9471081D
:100030000C9402010C9402010C9402010C94020134
:100040000C9402010C9402010C9402010C94020124
:100050000C9402010C9402010C9402010C94F5061C
:100060000C9402010C9402010C9402010C94020104
:100070000C9402010C9402010C9402010C940201F4
:100080000C9402010C9402010C9402010C940201E4
:100090000C9402010C9402010C9402010C940201D4
:1000A0000C9402010C9402010C9402010000000067
:1000B000250028002B002E00310000000000240045
:1000C00027002A002D003000000000002300260039
:1000D00029002C002F000404040404030405020278
:1000E00002020403020202020606060606060404D1
:1000F0000202020404040802011040804010204063
:10010000804080080204018040201002011080100D
:10011000204040200000000200090F0000030401FD
:10012000000C0000000000000000000000000000C3
:10013000000000080B000202020000090400000198
:10014000020200000524001001052401010104241D
:10015000020605240600010705810310004009047A
:100160000100020A00000007050202400000070526
:1001700083024000000403090412010002EF02019F
:1001800040FB1F0023000101020301506F6C6F6CE4
:100190007520436F72706F726174696F6E00506F7B
:1001A0006C6F6C7520412D5374617220333255345D
:1001B00000001F0B11241FBECFEFDAE0DEBFCDBF62
:1001C00011E0A0E0B1E0E6ECF2E202C005900D9291
:1001D000AE38B107D9F722E0AEE8B1E001C01D9218
:1001E000A832B207E1F710E0CAEDD0E004C02197D1
:1001F000FE010E94180FC93DD107C9F70E94450BA7
:100200000C9461110C940000FC018091CA018823B8
:1002100011F13FB7F89482E08093E9002091F20059
:10022000822F90E01816190614F481E090E08823DC
:1002300039F0289844E64093C9014091F100408389
:10024000222339F02091F200211103C02BE62093E4
:10025000E8003FBF08958FEF9FEF08952FB7F89400
:1002600083E08093E9009091E800892F807295FFE8
:1002700004C09091F20080E4891B2FBF0895809103
:10028000C10181110DC082E08093BD0184E08093A3
:10029000BE011092C0011092BF0181E08093C101A4
:1002A0008DEB91E008953FB7F8948091B90190915A
:1002B000BA01A091BB01B091BC0126B5A89B05C0B5
:1002C0002F3F19F00196A11DB11D3FBFBA2FA92FD5
:1002D000982F8827BC01CD01620F711D811D911DD2
:1002E00042E0660F771F881F991F4A95D1F708953E
:1002F0008F929F92AF92BF92CF92DF92EF92FF9236
:100300004B015C010E9453016B017C010E9453016F
:100310006C197D098E099F09683E7340810591051E
:10032000A8F321E0821A9108A108B10888EEC80E4E
:1003300083E0D81EE11CF11C81149104A104B104D6
:1003400029F7FF90EF90DF90CF90BF90AF909F90F4
:100350008F9008952FB7F8946091B5017091B60110
:100360008091B7019091B8012FBF089508954091F1
:10037000A7015091A8012091A5013091A601421733
:100380005307B4F49091E8009570E1F39091E80080
:1003900092FD19C08093F1008091A7019091A8016E
:1003A00001968F739927892B19F48EEF8093E800BB
:1003B0008091A7019091A80101969093A801809344
:1003C000A70181E0089580E00895EF92FF920F93D6
:1003D0001F93CF93DF93F82E192FE62E042F81E081
:1003E000860F880F0E94B70183E00E94B701CF2DCE
:1003F000D12FEC0EFD2EF11CCE15DF05B9F007FF55
:1004000013C0FE0184910E94B701182F80E00E9462
:10041000B701812321968111EFCFDF91CF911F91F9
:100420000F91FF90EF9008958881EDCF81E0F5CF97
:10043000DF92EF92FF920F931F93CF93DF93D82E0B
:100440008A01EB017B01E40EF51ECE15DF0559F0A4
:10045000D7FE12C0FE0184910E94B701219681113E
:10046000F4CF0FEF1FEFC801DF91CF911F910F91D4
:10047000FF90EF90DF9008958881EECF0F931F9348
:10048000CF93DF931F92CDB7DEB782E0898342E43A
:1004900050E063E371E080E80E9418020E943F018F
:1004A000DC0112960D911C910115110589F0D801FE
:1004B000ED91FC910280F381E02DBE016F5F7F4FD3
:1004C000C801099597FD04C0F80100851185ECCF9E
:1004D00089810F90DF91CF911F910F910895615005
:1004E00030F02091F100FC0120830196F8CF28988C
:1004F00084E68093C90108958F929F92AF92BF9234
:10050000CF92DF92EF92FF920F931F93CF93DF93DF
:100510006C017B018A0180910B01882309F45CC086
:100520008091CA01882309F457C08091AB0180FFF4
:1005300005C08091E00082608093E000E801B12C6A
:100540008AEFA82E93E0892E2AE3922E209711F4A9
:10055000BB20D9F10E942E0181110AC0AA94AA20C1
:10056000D9F161E070E080E090E00E947801EECF88
:100570008C171D0611F00CF08C2F9FB7F894809209
:10058000E9002091E80025FD02C09FBFDFCF282FA2
:1005900030E0C21BD30BF701815020F04191409312
:1005A000F100FACFE20EF31EBB2021F09092E8009A
:1005B000B12CEBCF8091E80085FDE7CF9092E80069
:1005C000BB24B394209709F3F3CF5D9884E680931E
:1005D000AA01101611063CF081E090E0F601938329
:1005E000828310E000E0C801DF91CF911F910F914D
:1005F000FF90EF90DF90CF90BF90AF909F908F9043
:100600000895CF93DF931F92CDB7DEB76983DC01E6
:10061000ED91FC910280F381E02D41E050E0BE01BC
:100620006F5F7F4F09950F90DF91CF910895682FED
:100630008BEC91E00C94010383E08093E9008091BE
:10064000F200882319F08AE38093E80008950E945D
:100650002E0190E00895CF93DF931F92CDB7DEB7C0
:10066000FC018485958597FD08C02FEF3FEF358706
:1006700024870F90DF91CF910895CE0101960E94BB
:100680000401019719F4898190E0F3CF8FEF9FEF78
:10069000F0CF0F931F93CF93DF931F92CDB7DEB7A9
:1006A0008C01FC018485958597FF0BC0CE010196D6
:1006B0000E940401019771F4898190E0F801958707
:1006C0008487F801848595850F90DF91CF911F91E4
:1006D0000F9108958FEF9FEFF1CFFC0184859585F1
:1006E00097FD0BC09FB7F89482E08093E90080915A
:1006F000F2009FBF90E0019608959FB7F89482E0C2
:100700008093E9008091F2009FBF90E008952E98B9
:10071000269A2D98259A2A98229A2998219A2F98D4
:10072000279A8AEA8093800089E18093810084EA95
:1007300091E0909387008093860010928900109238
:10074000880010928B0010928A0010928D001092F7
:100750008C000895CF93DF93EC0180919401811177
:1007600005C081E0809394010E94870380E0D7FF59
:1007700004C0D195C195D10981E0CD3291E0D9076E
:1007800014F0CCE2D1E0D0938900C0938800882394
:1007900029F0299A219ADF91CF9108952998FACFCB
:1007A000CF93DF93EC0180919401811105C081E02A
:1007B000809394010E94870380E0D7FF04C0D19505
:1007C000C195D10981E0CD3291E0D90714F0CCE296
:1007D000D1E0D0938B00C0938A00882329F02A9A15
:1007E000229ADF91CF9108952A98FACF8CB1282FC1
:1007F00030E03595279535952795422F417083B187
:1008000090E054E0959587955A95E1F7822781709D
:1008100020919201909193016091B0017091B1018A
:1008200024279827291B330B260F371F3093B1013C
:100830002093B0012091920190919301281729F003
:10084000941719F091E09093910180939201409355
:10085000930108959FB191708CB186FB882780F930
:10086000892720918F01309190014091AD015091E5
:10087000AE0129273827231B330B240F351F309354
:10088000AE012093AD0130918F0120919001381776
:1008900029F0291719F021E020938E0180938F0110
:1008A00090939001089524982C9A6A98729A6E9861
:1008B000769A8098889AF89491E090936800EBE695
:1008C000F0E080818061808326EF33E030939E01E9
:1008D00020939D019BBB80911B028F7E80931B0206
:1008E00083B190911B028071892B80931B027894B5
:1008F0008AE294E09093150180931401EAE6F0E017
:1009000080818F7C80618083EE9A8CB182FB882706
:1009100080F98093930193B18091930192959170A6
:100920008927809392011092B1011092B001109228
:1009300091018FB18170809390019CB18091900161
:1009400096FB992790F9892780938F011092AE0129
:100950001092AD0110928E010895CF93DF93DC01C8
:1009600018968C911897811135C019962C9119976A
:1009700030E0F901EB50FF4F2A523F4F81E01896CB
:100980008C9318971A968C911A97882309F451C062
:100990008491F90124912223C9F030E0220F331F02
:1009A000F901E654FF4F45915491F901E455FF4F89
:1009B000C591D4912FB7F894FA013081982F909572
:1009C00093239083E881E82BE8832FBF8FE090E0AA
:1009D0000197F1F719962C91199730E0F901EC5E27
:1009E000FE4F8491F901EB50FF4F94912A523F4FF3
:1009F000F9012491222309F483C0882309F43EC01D
:100A000081508F3008F03AC0E82FF0E0E65FFA4FEF
:100A10000C94180F5B055F053905530557053E0516
:100A20003E053E05620568056C05700576053E05C8
:100A30007A058491F9012491222309F4C7CF30E08B
:100A4000220F331FF901E654FF4F45915491F901EC
:100A5000E455FF4FC591D4912FB7F894FA019081D6
:100A6000382F3095892F832380838881E32FE823D3
:100A7000ABCF809180008F7780938000E22FF0E0F1
:100A8000EE0FFF1FE853FF4FC591D491E8819E23DD
:100A900031E009F430E0832F1B962C91822781707E
:100AA000DF91CF910895809180008F7DE5CF809177
:100AB0008000877FE1CF84B58F7784BDDFCF84B599
:100AC0008F7DFBCF809190008F7780939000D6CF61
:100AD000809190008F7DF9CF80919000877FF5CF36
:100AE0008091C0008F778093C000C8CF8091C000F4
:100AF0008F7DF9CF8091C200877F8093C200BECFE7
:100B000080E0CACFCF93DF938CE192E00E94AD04E6
:100B1000D1E0C82FCD270E94AA01209121022130C7
:100B200099F030F0223011F1233041F1C0E008C0DB
:100B3000C111FCCF7093230260932202D093210253
:100B40008C2FDF91CF910895CC2319F010922102C0
:100B5000EDCF2091220230912302621B730B6F3084
:100B6000710570F382E080932102E0CFCC2341F342
:100B7000709323026093220283E0F5CFCC2391F39C
:100B80002091220230912302621B730B6F3071059A
:100B900068F210922102D4CFFC0101900020E9F705
:100BA0003197AF01481B590BBC018BEC91E00C94C1
:100BB0007C028F929F92AF92BF920F931F93CF931D
:100BC000DF93CDB7DEB7A1970FB6F894DEBF0FBEA7
:100BD000CDBF19A2423008F44AE08E010F5D1F4FCD
:100BE000842E912CB12CA12CA50194010E94F60E0B
:100BF000E62FB901CA01EA30F4F4E05DD801EE93C2
:100C00008D01232B242B252B79F790E080E0109782
:100C100019F0CD010E94CC05A1960FB6F894DEBF65
:100C20000FBECDBFDF91CF911F910F91BF90AF90BD
:100C30009F908F900895E95CE1CF4F925F926F9201
:100C40007F928F929F92AF92BF92CF92DF92EF925C
:100C5000FF920F931F93CF936B017C01742EAC0115
:100C60009B010E945C11882399F08FE791E0CF915E
:100C70001F910F91FF90EF90DF90CF90BF90AF90BA
:100C80009F908F907F906F905F904F900C94CC05C9
:100C900046015701E894B7F82FEF3FEF4FE75FE7C2
:100CA000C501B4010E945C1181110DC02FEF3FEF0F
:100CB0004FE75FE7C501B4010E948B0F18161CF4C3
:100CC00083E891E0D4CF2FEF3FEF4FE75FE4C70118
:100CD000B6010E94EA1018161CF487E891E0C7CF0D
:100CE0002FEF3FEF4FE75FECC701B6010E948B0F7C
:100CF00087FDF3CF20E030E0A901C701B6010E94D3
:100D00008B0F10E000E087FF08C08DE20E94170300
:100D10008C01F7FAF094F7F8F094C0E060E070E02E
:100D200080E09FE37C1641F020E030E040E251E4B7
:100D30000E94900FCF5FF6CFA70196010E941F0F70
:100D40002B013C010E9409104B015C014AE00E940A
:100D5000D9057C01E00EF11ECC23B1F1C501B4012F
:100D60000E9438109B01AC01C301B2010E941E0F0A
:100D70004B015C018EE20E941703E80EF91EC15080
:100D800018F120E030E040E251E4C501B4010E94D6
:100D9000EF102B013C010E9409104B01B12CA12C3A
:100DA0004AE0C501B4010E94D905E80EF91EC5014B
:100DB000B4010E9438109B01AC01C301B2010E9432
:100DC0001E0F4B015C01DBCFC701CF911F910F912B
:100DD000FF90EF90DF90CF90BF90AF909F908F905B
:100DE0007F906F905F904F9008951F920F920FB673
:100DF0000F9211242F933F938F939F93AF93BF93A1
:100E00008091B5019091B601A091B701B091B80160
:100E10003091B40123E0230F2D3758F50196A11D21
:100E2000B11D2093B4018093B5019093B601A093B6
:100E3000B701B093B8018091B9019091BA01A09126
:100E4000BB01B091BC010196A11DB11D8093B901F8
:100E50009093BA01A093BB01B093BC01BF91AF9135
:100E60009F918F913F912F910F900FBE0F901F90E8
:100E7000189526E8230F0296A11DB11DD2CF1F920F
:100E80000F920FB60F9211242F933F934F935F93BE
:100E90006F937F938F939F93AF93BF93EF93FF9342
:100EA000E0911401F09115010995FF91EF91BF9127
:100EB000AF919F918F917F916F915F914F913F91F2
:100EC0002F910F900FBE0F901F9018951F920F92A9
:100ED0000FB60F9211242F933F934F935F936F930D
:100EE0007F938F939F93AF93BF93EF93FF93E09183
:100EF0001201F09113010995FF91EF91BF91AF910C
:100F00009F918F917F916F915F914F913F912F9121
:100F10000F900FBE0F901F9018951F920F920FB653
:100F20000F9211242F933F934F935F936F937F936F
:100F30008F939F93AF93BF93EF93FF93E091100133
:100F4000F09111010995FF91EF91BF91AF919F91A0
:100F50008F917F916F915F914F913F912F910F9062
:100F60000FBE0F901F9018951F920F920FB60F9201
:100F700011242F933F934F935F936F937F938F939E
:100F80009F93AF93BF93EF93FF93E0910E01F09186
:100F90000F010995FF91EF91BF91AF919F918F91B3
:100FA0007F916F915F914F913F912F910F900FBE65
:100FB0000F901F9018951F920F920FB60F92112449
:100FC0002F933F934F935F936F937F938F939F9351
:100FD000AF93BF93EF93FF93E0910C01F0910D015C
:100FE0000995FF91EF91BF91AF919F918F917F9163
:100FF0006F915F914F913F912F910F900FBE0F9086
:101000001F9018951F920F920FB60F9211248F9375
:101010009F938091E1009091E100937F9093E10094
:1010200083FF0FC01092E90091E09093EB001092C3
:10103000EC0092E39093ED001092CA0198E0909337
:10104000F00082FF22C093E09093E9009091F200BB
:10105000992319F09AE39093E8009091AA019923BB
:1010600041F09091AA0191509093AA01911101C071
:101070005D9A9091C901992341F09091C9019150D5
:101080009093C901911101C0289A84FF18C08091E2
:10109000E2008E7E81608093E2008091E1008F7E8D
:1010A0008093E1008091AB018E7E80618093AB01E3
:1010B0009F918F910F900FBE0F901F90189580FFFA
:1010C000F7CF8091E2008E7E80618093E200809174
:1010D000E1008E7E8093E1008091AB018E7E816085
:1010E000E5CF1F920F920FB60F921124CF92DF928D
:1010F000EF92FF920F931F932F933F934F935F9322
:101100006F937F938F939F93AF93BF93EF93FF93CF
:10111000CF93DF93CDB7DEB76C97DEBFCDBF109214
:10112000E9008091E80083FF25C068E0CE01459684
:101130000E946F0282EF8093E8008D8987FF39C09B
:101140009091E80090FFFCCF982F907609F034C181
:101150009E894F89588D2F89F88C911131C0803824
:1011600061F58091AC018093F1001092F1008EEF57
:101170008093E8006C960FB6F894DEBF0FBECDBF2B
:10118000DF91CF91FF91EF91BF91AF919F918F919F
:101190007F916F915F914F913F912F911F910F918F
:1011A000FF90EF90DF90CF900F900FBE0F901F90A9
:1011B00018959EEF9093E800C7CF1092F100D5CF1D
:1011C000913059F48111D3CF4130510581F680918E
:1011D000AC018D7F8093AC01CACF933049F481116B
:1011E000C6CF4130510519F68091AC018260F2CF33
:1011F000953041F48091E80080FFFCCF2068209377
:10120000E300B5CF963009F0A9C00B8D1C8D22E00C
:101210001092E9001092A8011092A701F2122EC0BC
:101220001092A6011092A5010E943E021F8299E031
:101230009983FA8291E09E8390EA98879AEF998742
:101240002091A7013091A801275F3F4F3C832B835A
:101250008D831092E9001092A8011092A7011093BB
:10126000A6010093A50149E050E0BE016F5F7F4FEA
:1012700080E00E9418020E943E0279CF1093A601DE
:101280000093A5010E943F01DC0112960D911C9173
:101290000115110509F451C1D801ED91FC910480AB
:1012A000F581E02DBE016B5E7F4FC8010995009767
:1012B00009F03EC1F80100851185EACFF3E0FF1285
:1012C0000EC08F89882309F440C0823061F440E861
:1012D00062E18EE991E00E94E501811148CF81E24F
:1012E0008093EB0047CF813029F440E862E18BE83E
:1012F00091E0F1CF833099F70E943F01DC01129613
:10130000ED90FC908E010F5F1F4F6801E114F10416
:1013100079F0D701ED91FC910680F781E02DB801BD
:10132000C7010995080F111DF701E084F184EECF84
:10133000D8011C92F60101900020E9F73197BF0116
:101340006C197D0940E0C601C6CF65E771E0FB017D
:10135000449150E080E80E94180209CF973009F4C8
:10136000BECF983021F481E08093F10000CF993016
:1013700009F0FDCE837009F0B2CFE1E6F1E081E043
:1013800031E096E32191222371F08093E9003093BC
:10139000EB00DF0111972C912093EC009093ED006E
:1013A0008F5F873079F78EE78093EA001092EA002A
:1013B0008F898093CA01DBCE8B8D9C8D1092E900C2
:1013C0001092A8011092A7019093A6018093A50105
:1013D000898D811192C08E899D89913A49F481321B
:1013E00009F07DCF47E050E064E071E080E0B3CFEA
:1013F000913209F074CF833269F48F89988DB0E00F
:10140000A0E08093000190930101A0930201B093AA
:101410000301ADCE803269F48091E80082FFFCCFF9
:1014200067E084E091E00E946F028BEF8093E80018
:101430009ECE823209F09BCE8F8980930B01EEEF16
:10144000FFE7859194918B3F9C4D51F1E0E0F8E0EE
:101450008091040190910501A0910601B0910701CE
:10146000803B9440A105B105F1F480910B0180FD12
:101470001AC0EE3F8AE0F80789F587E797E791837E
:101480008083809160008093A90188E19BE00FB682
:10149000F894A895809360000FBE9093600067CE8B
:1014A000EEEFFAE0D5CF808191818737974709F039
:1014B0005ECEA895809160008861809360008091E5
:1014C000A90180936000EE3F2AE0F20789F0809145
:1014D000FE0A9091FF0A9183808349CE8081918199
:1014E0008737980751F29093FF0A8093FE0AC5CF81
:1014F0001092FF0A1092FE0A3ACE0E943F01DC01D0
:1015000012960D911C910115110509F4E8CED80130
:10151000ED91FC910190F081E02DBE016B5E7F4F5B
:10152000C8010995811123CEF80100851185EBCF03
:10153000181619060CF41BCED2CEF1E0FF12BECE67
:1015400069E771E004CF1F920F920FB60F9211243A
:101550002F933F934F935F936F937F938F939F93BB
:10156000AF93BF93EF93FF93CF93DF9300D01F927E
:10157000CDB7DEB783B18983898190911B0289271A
:101580008A8380916B009A8189238B838B8180FF72
:1015900005C0E0919501F091960109958B8181FF3D
:1015A00005C0E0919701F091980109958B8182FF28
:1015B00005C0E0919901F0919A0109958B8183FF13
:1015C00005C0E0919B01F0919C0109958B8184FFFE
:1015D00005C0E0919D01F0919E0109958B8185FFE9
:1015E00005C0E0919F01F091A00109958B8186FFD4
:1015F00005C0E091A101F091A20109958B8187FFBF
:1016000005C0E091A301F091A4010995898180931F
:101610001B020F900F900F90DF91CF91FF91EF91F0
:10162000BF91AF919F918F917F916F915F914F91FA
:101630003F912F910F900FBE0F901F901895EBECDC
:10164000F1E01382128288EE93E0A0E0B0E08483A0
:101650009583A683B7838BE691E0918380838FEF98
:101660009FEF9587848783B180931B02ECE1F2E0C2
:101670001282158210868EE0818781E082878387BF
:101680008DE791E0918380830895CF93DF93CDB769
:10169000DEB764970FB6F894DEBF0FBECDBF789467
:1016A00084B5826084BD84B5816084BD85B5826067
:1016B00085BD85B5816085BD80916E008160809318
:1016C0006E00109281008091810082608093810081
:1016D0008091810081608093810080918000816091
:1016E000809380008091910082608093910080912E
:1016F000910081608093910080919000816080933F
:1017000090008091C10084608093C1008091C100ED
:1017100082608093C1008091C10081608093C1008C
:101720008091C30081608093C3008091C00082607B
:101730008093C0008091C20081608093C20080913C
:101740007A00846080937A0080917A00826080932E
:101750007A0080917A00816080937A0080917A008B
:10176000806880937A001092CA011092AC011092A6
:10177000AB018091D70081608093D70080EA80938D
:10178000D80089B5806189BD89B5826089BD09B4F9
:1017900000FEFDCF61E070E080E090E00E94780103
:1017A0008091D8008F7C80618093D8008091E00088
:1017B000807F8093E0008091E1008E7E8093E10045
:1017C0008DE08093E200559A209A8FEF9FEF9093DF
:1017D000D8018093D70180E0282E80E0382E11E0D8
:1017E0008091B2019091B301009749F0019709F4FB
:1017F00053C021143104A1F30E940000F1CF0E94D4
:1018000082058823B1F320E030E040ED51E42093DD
:10181000220130932301409324015093250120930A
:1018200026013093270140932801509329010E94FB
:10183000AA0160933401709335018093360190932F
:10184000370160934001709341018093420190936E
:101850004301605C704E8F4F9F4F609338017093CF
:10186000390180933A0190933B01109250011092FC
:101870005101109252011092530110925401109292
:101880005501109256011092570141E050E05093DB
:10189000B3014093B201ADCF0E94AA016D837E8354
:1018A0008F8398878091400190914101A0914201DE
:1018B000B09143012D813E814F815885281B390B02
:1018C0004A0B5B0BDA01C901C297A105B10508F407
:1018D00040C28091440190914501909349018093C9
:1018E0004801809146019091470190934B0180936C
:1018F0004A018091AF01811104C01093AF010E9491
:101900005304F8948091B0019091B1017894909330
:101910004501809344018091AF01811104C010936F
:10192000AF010E945304F8948091AD019091AE01F3
:10193000789490934701809346010E94AA010E94E7
:10194000381060934C0170934D0180934E01909339
:101950004F0160912601709127018091280190919B
:1019600029010E9402104B0140901E0150901F015E
:10197000609020017090210120913C0130913D0147
:1019800040913E0150913F01609116017091170105
:1019900080911801909119010E94EF1069837A8358
:1019A0008B839C836091220170912301809124019B
:1019B000909125010E940210072E000C880B990BB4
:1019C0000E943A106B017C016091440170914501C5
:1019D0008091480190914901681B790B072E000CFA
:1019E000880B990B0E943A10A30192010E94EF10FC
:1019F00029813A814B815C810E94900F9B01AC014F
:101A0000C701B6010E941E0F6B017C01209150019D
:101A10003091510140915201509153010E941F0F8A
:101A20006D877E878F87988B6093500170935101EB
:101A30008093520190935301B401990C880B990B38
:101A40000E943A104B015C01609146017091470180
:101A500080914A0190914B01681B790B072E000C75
:101A6000880B990B0E943A10A30192010E94EF107B
:101A700029813A814B815C810E94900F9B01AC01CE
:101A8000C501B4010E941E0F2B013C01209154019D
:101A90003091550140915601509157010E941F0FFE
:101AA0004B015C018092540190925501A092560125
:101AB000B092570180912A0190912B01A0912C01A5
:101AC000B0912D0189839A83AB83BC8320912E0131
:101AD00030912F01409130015091310129873A878F
:101AE0004B875C879C01AD01C701B6010E94EF10D6
:101AF0006B017C0129853A854B855C856D857E85EA
:101B00008F8598890E94EF109B01AC01C701B60137
:101B10000E941F0F6B017C01C0925801D0925901A5
:101B2000E0925A01F0925B0129813A814B815C81FC
:101B3000C301B2010E94EF102B013C0129853A85B7
:101B40004B855C85C501B4010E94EF109B01AC017F
:101B5000C301B2010E941F0F4B015C0180925C0126
:101B600090925D01A0925E01B0925F01C701B60143
:101B70000E940210CB010E94D003C501B4010E9453
:101B80000210CB010E94AA038D819E81AF81B8858E
:101B90008093400190934101A0934201B09343018F
:101BA0000E94AA01C0903401D0903501E090360126
:101BB000F09037016C197D098E099F090E94381039
:101BC0006D837E838F8398872091540130915501D6
:101BD000409156015091570129833A834B835C838E
:101BE00080915C0190915D01A0915E01B0915F01D7
:101BF00089879A87AB87BC8780901E0190901F01D0
:101C0000A0902001B090210120913C0130913D0134
:101C100040913E0150913F01609116017091170172
:101C200080911801909119010E94EF106B017C01C5
:101C3000609146017091470180914A0190914B015A
:101C4000681B790B072E000C880B990B0E943A1029
:101C5000A50194010E94EF10A70196010E94900F28
:101C60002B013C01209150013091510140915201D2
:101C7000509153012D873E874F87588B8091580193
:101C800090915901A0915A01B0915B01898B9A8B77
:101C9000AB8BBC8B609144017091450180914801F0
:101CA00090914901681B790B072E000C880B990B4A
:101CB0000E943A10A50194010E94EF10A70196011D
:101CC0000E94900F42E00E941D0680E20E941703CE
:101CD00042E069897A898B899C890E941D0680E28D
:101CE0000E94170342E06D857E858F8598890E944A
:101CF0001D0680E20E94170342E0C301B2010E9468
:101D00001D0680E20E94170342E069857A858B8573
:101D10009C850E941D0680E20E94170342E06981B3
:101D20007A818B819C810E941D0680E20E941703AC
:101D300042E06D817E818F8198850E941D068BE82F
:101D400091E00E94CC0565E070E080E090E00E94A8
:101D500078010E94AA01C0903801D0903901E0902A
:101D60003A01F0903B016C157D058E059F05E0F072
:101D70001092220110922301109224011092250149
:101D80001092260110922701109228011092290129
:101D900090E080E00E94D00390E080E00E94AA03DF
:101DA0001092B3011092B2010E948205882309F4B7
:101DB00020CD109222011092230110922401109242
:101DC00025011092260110922701109228011092ED
:101DD000290190E080E00E94D00390E080E00E9422
:101DE000AA031092B3011092B20103CDA1E21A2E00
:101DF000AA1BBB1BFD010DC0AA1FBB1FEE1FFF1FAF
:101E0000A217B307E407F50720F0A21BB30BE40BFE
:101E1000F50B661F771F881F991F1A9469F7609545
:101E20007095809590959B01AC01BD01CF010895FF
:101E3000EE0FFF1F0590F491E02D09945058BB2739
:101E4000AA270E94360F0C94B0100E94A21038F0FE
:101E50000E94A91020F039F49F3F19F426F40C9445
:101E60009F100EF4E095E7FB0C949910E92F0E9467
:101E7000C11058F3BA17620773078407950720F05B
:101E800079F4A6F50C94E3100EF4E0950B2EBA2F1E
:101E9000A02D0B01B90190010C01CA01A001112470
:101EA000FF27591B99F0593F50F4503E68F11A161C
:101EB000F040A22F232F342F4427585FF3CF4695AD
:101EC00037952795A795F0405395C9F77EF41F16CF
:101ED000BA0B620B730B840BBAF09150A1F0FF0F99
:101EE000BB1F661F771F881FC2F70EC0BA0F621F85
:101EF000731F841F48F4879577956795B795F79575
:101F00009E3F08F0B0CF9395880F08F09927EE0F09
:101F10009795879508950E94751008F481E00895BB
:101F20000E94A40F0C94B0100E94A91058F00E94B7
:101F3000A21040F029F45F3F29F00C949910511140
:101F40000C94E4100C949F100E94C11068F3992324
:101F5000B1F3552391F3951B550BBB27AA276217A5
:101F60007307840738F09F5F5F4F220F331F441FB2
:101F7000AA1FA9F335D00E2E3AF0E0E832D09150E6
:101F80005040E695001CCAF72BD0FE2F29D0660FD3
:101F9000771F881FBB1F261737074807AB07B0E816
:101FA00009F0BB0B802DBF01FF2793585F4F3AF01C
:101FB0009E3F510578F00C9499100C94E4105F3F0B
:101FC000E4F3983ED4F3869577956795B795F795A2
:101FD0009F5FC9F7880F911D9695879597F908958A
:101FE000E1E0660F771F881FBB1F62177307840726
:101FF000BA0720F0621B730B840BBA0BEE1F88F735
:10200000E09508950E9409106894B1110C94E410B1
:1020100008950E94C91088F09F5798F0B92F99270A
:10202000B751B0F0E1F0660F771F881F991F1AF0C3
:10203000BA95C9F714C0B13091F00E94E310B1E035
:1020400008950C94E310672F782F8827B85F39F034
:10205000B93FCCF3869577956795B395D9F73EF45C
:1020600090958095709561957F4F8F4F9F4F089504
:10207000E89409C097FB3EF4909580957095619522
:102080007F4F8F4F9F4F9923A9F0F92F96E9BB27D8
:102090009395F695879577956795B795F111F8CF54
:1020A000FAF4BB0F11F460FF1BC06F5F7F4F8F4FBF
:1020B0009F4F16C0882311F096E911C0772321F0B5
:1020C0009EE8872F762F05C0662371F096E8862F4D
:1020D00070E060E02AF09A95660F771F881FDAF7A4
:1020E000880F9695879597F90895990F0008550FD1
:1020F000AA0BE0E8FEEF16161706E807F907C0F08E
:1021000012161306E407F50798F0621B730B840B95
:10211000950B39F40A2661F0232B242B252B21F46F
:1021200008950A2609F4A140A6958FEF811D811D0F
:10213000089597F99F6780E870E060E008959FEF49
:1021400080EC089500240A9416161706180609064E
:10215000089500240A94121613061406050608951D
:10216000092E0394000C11F4882352F0BB0F40F4A5
:10217000BF2B11F460FF04C06F5F7F4F8F4F9F4FE5
:10218000089557FD9058440F551F59F05F3F71F067
:102190004795880F97FB991F61F09F3F79F08795CE
:1021A0000895121613061406551FF2CF4695F1DF57
:1021B00008C0161617061806991FF1CF86957105E7
:1021C000610508940895E894BB2766277727CB011B
:1021D00097F908950E94751008F48FEF08950E94F2
:1021E00002110C94B0100E94A21038F00E94A910A5
:1021F00020F0952311F00C9499100C949F10112449
:102200000C94E4100E94C11070F3959FC1F3950FD8
:1022100050E0551F629FF001729FBB27F00DB11D6A
:10222000639FAA27F00DB11DAA1F649F6627B00DFA
:10223000A11D661F829F2227B00DA11D621F739FE3
:10224000B00DA11D621F839FA00D611D221F749FF1
:102250003327A00D611D231F849F600D211D822F38
:10226000762F6A2F11249F5750409AF0F1F088235F
:102270004AF0EE0FFF1FBB1F661F771F881F91508C
:102280005040A9F79E3F510580F00C9499100C9492
:10229000E4105F3FE4F3983ED4F386957795679515
:1022A000B795F795E7959F5FC1F7FE2B880F911DB6
:1022B0009695879597F908950E947510880B990B4C
:0622C0000895F894FFCF21
:1022C600FFFFFFFF00E1000000000000B601B601BD
:1022D600B601B601B6010000B44400000C4258E94C
:1022E6005B4300000000000000009A99993ECDCCA7
:1022F600CC3D00000000000000000000CDCC4C3DAD
:1023060000000000000000000000000000000000C7
:1023160000000000000000000000000000000000B7
:1023260000C180810000000000000001037C02273C
:10233600031C036D032B03490300000000AD046E6C
:0E234600616E00696E66006F7666000D0A001B
:00000001FF
